:1000000012C02CC02BC02AC029C028C027C026C0BF
:1000100025C024C023C022C021C020C01FC01EC0D4
:100020001DC01CC01BC011241FBECFE5D4E0DEBF25
:10003000CDBF10E0A0E6B0E0E8E0F2E002C005903D
:100040000D92AA36B107D9F720E0AAE6B0E001C0C8
:100050001D92A037B207E1F752D0D4C0D1CFCF93D1
:10006000DF939FB7F894C09AB89AC09808B2E3E0BB
:10007000C0E2DC2FDA95F1F780FB00F8E695879572
:1000800008BAB9F79FBFDF91CF910895A09AA898B9
:1000900083EA8A95F1F70000A09886E18A95F1F746
:1000A00000C083B3817080936F008CE88A95F1F76C
:1000B00000C080916F00089598E080E0A09A00C091
:1000C000A09800C000C086959899806824E12A9580
:1000D000F1F700C0915091F7089598E0A09A00C000
:1000E00080FF02C0A09801C0A09A869524E12A95BD
:1000F000F1F700C0A09800C0915081F70895C1E6C3
:10010000D0E084E5ACDF89918111FCCF14E6BEDF3D
:100110008CECE3DF84E4E1DF83E294EF0197F1F715
:1001200000C00000B3DF8CECD8DF8EEBD6DFC4DF7D
:1001300080936A00C1DF80936E0090E1899FE001A7
:100140001124C077DD2780916A0082958F70C82BBB
:1001500083E294EF0197F1F700C000009E0136950D
:10016000279536952795ABE7B4E140D096958795CE
:10017000805D75DF9E013695279536952795ABE70F
:10018000B4E134D096958795189F9001199F300D52
:100190001124CE01821B930B9C01ADECBCEC26D04C
:1001A000969587959695879596958795805D57DF67
:1001B0009E01ADECBCEC1AD09695879596958795E7
:1001C000969587959C01220F331F880F991F880FE2
:1001D000991F880F991F820F931F9E01281B390BAF
:1001E000C901805D3CDF8DE03ADF91CFA29FB00175
:1001F000B39FC001A39F01D0B29F700D811D112438
:08020000911D0895F894FFCF51
:0A0208005452414E534D49540A0070
:00000001FF
