:100000005EC078C09DC176C075C074C073C072C038
:1000100071C0D0C16FC06EC06DC06CC06BC06AC013
:1000200069C000C20100010005000500030000E1F5
:10003000000001000F000F000D00009600000200FC
:1000400019001A001700127A000007002000210092
:100050001D00807000000B00230023002000004BD7
:1000600000001400370037003400403800001E0044
:100070004B004B00480080250000320072007200E7
:100080007000C01200006E00E900E900E60060099F
:100090000000E500D801D801D501B0040000D3016B
:1000A000B403B403B10358020000B4036707670741
:1000B00062072C0100006707DD0EDD0EDA0E112449
:1000C0001FBECFE5D2E0DEBFCDBF10E0A0E6B0E0BE
:1000D000ECE0F7E002C005900D92A036B107D9F729
:1000E00020E0A0E6B0E001C01D92A73EB207E1F714
:1000F00002D00AC385CFCF93DF93CDB7DEB7C05A06
:10010000D1090FB6F894DEBF0FBECDBF82E080BF2D
:1001100013BE12BE9CE796BF1CBE89BFFE01E75806
:10012000FF4F18E2DF01812F1D928A95E9F70F2E0C
:10013000F0E88F2EF5E29F2EA12CB12CF02D8082BD
:100140009182A282B3826AE370E0758364834BE399
:1001500050E05783468329E330E03187208785E0EC
:10016000828781E0838708E2CE010196DC0101905D
:100170000D920A95E1F7FE01EF5AFF4FDF011D9244
:100180001A95E9F780829182A282B3827583648393
:10019000578346833187208724E0228728E2DE01C7
:1001A000999601900D922A95E1F79093A100809382
:1001B000A00088969093E5008093E40012D180918E
:1001C000A0009091A1000DD18FEF87BB8091A0007E
:1001D0009091A10000D2892B59F00091E400109178
:1001E000E5008091A0009091A100E1D1B801FED17D
:1001F0008091E4009091E500EED1892B59F00091B7
:10020000A0001091A1008091E4009091E500CFD171
:10021000B801ECD18FEC97E00197F1F700C0000036
:10022000D5CFDC011896ED91FC9119971A962C9177
:100230001A97808190E002C0959587952A95E2F7FC
:1002400080FD7DC092968D919C91939720E00197BF
:100250002FEF8F3F9207D9F791E040E050E061E047
:1002600073E0993020F59096ED91FC919197359738
:10027000252F31972FEFEF3FF207D9F71896ED9121
:10028000FC9119971A968C911A97208130E002C040
:10029000359527958A95E2F720FF02C0492B03C0C8
:1002A000892F8095482388B3862788BB21C09496E0
:1002B000ED91FC919597252F31972FEFEF3FF207A6
:1002C000D9F71896ED91FC9119971A968C911A9777
:1002D000208130E002C0359527958A95E2F720FD10
:1002E00007C06093E6001092A3001092A20073BFB3
:1002F0009F5F9A3009F0B5CF5C968C915C975D96C4
:100300002C915D9790E001968F70992730E08217CD
:10031000930779F05C968C915C97FD01E80FF11DD5
:1003200044875C968C915C978F5F8F705C968C9302
:10033000089581E090E05F969C938E935E97089578
:100340001F920F920FB60F9211242F933F934F934A
:100350005F936F937F938F939F93AF93BF93EF932D
:10036000FF938091E600882331F0CC9B04C013BE3C
:1003700012BE1092E600CD9905C08091A000909128
:10038000A1004FDFCC9905C08091E4009091E50079
:1003900048DFFF91EF91BF91AF919F918F917F9136
:1003A0006F915F914F913F912F910F900FBE0F90E2
:1003B0001F9018951F920F920FB60F9211248F93D2
:1003C0009F938091A2009091A30001969093A30027
:1003D0008093A2009F918F910F900FBE0F901F905E
:1003E00018958F929F92AF92BF92CF92DF92EF9229
:1003F000FF92DC015C961C925C975D961C925D9767
:100400005F961C921E925E971B962C911B971496DA
:10041000ED91FC91159781E090E0AC0102C0440F92
:10042000551F2A95E2F79A013081232B20831A96D3
:100430002C911A971496ED91FC911597BC0102C06E
:10044000660F771F2A95E2F79B0120953095308142
:10045000232320831A962C911A971B964C911B9755
:100460001696ED91FC911797BC0102C0660F771F9D
:100470002A95E2F702C0880F991F4A95E2F7862B6A
:10048000972B9081892B8083E2E2F0E0C590D59094
:10049000E590F4904D915D916D917C911397C41608
:1004A000D506E606F706A9F04EE250E021E030E07E
:1004B000FA0185909590A590B490CD90DD90ED9047
:1004C000FC9013978C149D04AE04BF0409F05EC029
:1004D00002C020E030E0C901880F991FFC01E20F43
:1004E000F31FEE0FFF1FEE0FFF1FEA5DFF4F459159
:1004F000549193965C934E939297FC01E20FF31FF5
:10050000EE0FFF1FEE0FFF1FE85DFF4F4591549167
:1005100091965C934E939097FC01E20FF31FEE0FC0
:10052000FF1FEE0FFF1FE65DFF4F4591549195961B
:100530005C934E939497FC01E20FF31FEE0FFF1FA5
:10054000EE0FFF1FE45DFF4F8591949197969C936A
:100550008E9396978BB780618BBF1A963C911A97B2
:1005600022B381E090E002C0880F991F3A95E2F72C
:10057000822B82BB96968D919C91979720E0019754
:100580002FEF8F3F9207D9F7789408C02F5F3F4F26
:10059000445F5F4F2D30310509F08ACFFF90EF9017
:1005A000DF90CF90BF90AF909F908F900895FC0107
:1005B000958D848D981761F0858DDF01A80FB11D91
:1005C0001C968C91958D9F5F9F70958F90E00895FC
:1005D0008FEF9FEF0895FC01948D258D892F90E07A
:1005E0004096821B91098F70992708950F931F934E
:1005F000CF93DF93DB0196962D913C919797211530
:10060000310509F47BC0CFB7F8941B969C911B97DA
:100610001696ED91FC91179721E030E002C0220F71
:10062000331F9A95E2F720953095908129232083F6
:100630009696ED91FC919797349620E031972FEFA5
:10064000EF3FF207D9F748E050E091E061E070E059
:10065000D0E0282F292391F01B962C911B971696FA
:10066000ED91FC9117978B0102C0000F111F2A9585
:10067000E2F798013081232B208313C01B962C9125
:100680001B971696ED91FC9117978B0102C0000FF6
:10069000111F2A95E2F79801209530953081232388
:1006A00020839696ED91FC9197972D2F31972FEF00
:1006B000EF3FF207D9F7990F4150510909F0C9CF1F
:1006C0001B962C911B971696ED91FC91179781E044
:1006D00090E002C0880F991F2A95E2F79081892B3C
:1006E0008083CFBF96968D919C91979720E001973C
:1006F0002FEF8F3F9207D9F721E030E0C901DF915A
:0C070000CF911F910F910895F894FFCF46
:00000001FF
