S01700004763634170706C69636174696F6E352E7372656357
S113000010C01FC06CC11DC01CC01BC01AC019C0C9
S113001018C017C016C015C014C013C012C011C038
S113002010C011241FBECFE5D2E0DEBFCDBF20E05B
S1130030A0E6B0E001C01D92A737B207E1F785D072
S113004093C1DECF8AB380688ABB8BB38F778BBBB7
S113005083EA8A95F1F700008AB38F778ABB86E139
S11300608A95F1F700C089B38078809376008CE894
S11300708A95F1F700C080917600089580E020E031
S113008011C09AB390689ABB00C09AB39F779ABB89
S113009000C000C08695CF99806894E19A95F1F7E5
S11300A000C02F5F283068F3089520E017C09AB38A
S11300B090689ABB00C080FF04C09AB39F779ABB34
S11300C003C09AB390689ABB869594E19A95F1F728
S11300D000C09AB39F779ABB00C02F5F283038F3D3
S11300E008959FB7F8948BB38F7D8BBB8AB38F7DB4
S11300F08ABB2FE280E8CD99FECF2150F1F721E2AF
S1130100CD9908948795C8F72A95F1F778949FBFFD
S11301100895CF93DF932FB7F8949BB390619BBB63
S11301209AB390619ABBDC980BB2E3E0C0E2DC2F97
S1130130DA95F1F780FB04F8E69587950BBAB9F7E1
S11301402FBF7894DF91CF91089515BE81E282BBD1
S113015080E18BBF8ABF789480916C008133F1F584
S1130160809160008830D0F16DDF8CEC9EDF84E4F8
S11301709CDF83E294EF0197F1F700C0000083E273
S113018094EF0197F1F700C0000083E294EF019728
S1130190F1F700C0000083E294EF0197F1F700C08B
S11301A0000050DF8CEC81DF8EEB7FDF67DF809314
S11301B0630064DF8093750090E0ABDF809163009F
S11301C090E0A7DF80E006C0E82FF0E0E459FF4F9D
S11301D010828F5F8830C0F31092600080916C00B1
S11301E0823339F580916000883018F18EEF90E009
S11301F090DFCCE6D0E0898190E08BDF8A8190E0CB
S113020088DF8B8190E085DF29818A8190E0820FED
S1130210911D2B81820F911D7CDF80E006C0E82FA9
S1130220F0E0E459FF4F10828F5F8830C0F31092E2
S1130230600080916C00833309F08ECF8091600060
S1130240883008F489CF8EEF90E063DFCCE6D0E00D
S1130250898190E05EDF898190E05BDF80E006C009
S1130260E82FF0E0E459FF4F10828F5F8830C0F32D
S11302701092600071CF9FB7F8948BB38E7F8BBBC5
S11302808AB38E7F8ABB2FE280E8C899FECF2150C3
S1130290F1F721E2C89908948795C8F72A95F1F7F0
S11302A09FBF78940895CF93DF932FB7F8949BB3AF
S11302B092609BBB9AB392609ABBD9980BB2E3E06D
S11302C0C0E2DC2FDA95F1F780FB01F8E69587951B
S11302D00BBAB9F72FBF7894DF91CF9108951F928D
S11302E00F920FB60F9211242F933F934F935F9366
S11302F06F937F938F939F93AF93BF93EF93FF93EA
S1130300F894C8990DC0B7DF80936200E091600053
S113031091E09E0F90936000F0E0E459FF4F8083DA
S1130320CD9910C0DEDE80936200BDDFE0916100F4
S113033081E08E0F80936100F0E080916200EC59BF
S1130340FF4F80837894FF91EF91BF91AF919F917C
S11303508F917F916F915F914F913F912F910F906A
S10F03600FBE0F901F901895F894FFCF6B
S9030000FC
