:100000005EC078C05FC676C075C074C073C072C071
:1000100071C070C06FC03DC86DC06CC06BC06AC09D
:1000200069C000C20100010005000500030000E1F5
:10003000000001000F000F000D00009600000200FC
:1000400019001A001700127A000007002000210092
:100050001D00807000000B00230023002000004BD7
:1000600000001400370037003400403800001E0044
:100070004B004B00480080250000280071007200F2
:100080007000C01200006E00E900E900E60060099F
:100090000000E500D801D801D501B0040000D3016B
:1000A000B403B403B10358020000B4036707670741
:1000B00062072C0100006707DD0EDD0EDA0E112449
:1000C0001FBECFE5D2E0DEBFCDBF10E0A0E6B0E0BE
:1000D000E0E9F5E102C005900D92A236B107D9F72B
:1000E00020E0A2E6B0E001C01D92A83DB207E1F712
:1000F00033D84CCA85CF98B384E0892788BB08954C
:10010000882311F0C29A0895C298089580939000B0
:100110009093910080FF02C0DA9A01C0DA9881E0E2
:100120000895809388009093890080FF02C0DB9A35
:1001300001C0DB9881E008959C01CB012037310597
:1001400010F4822F68C32038310509F4DFCF21383D
:10015000310509F4E6CF80E00895FB01843891056C
:1001600021F46CE770E0CF019AC48538910541F421
:1001700080917C0090917D009183808381E008953F
:1001800080E00895CF93DF93EB018037910518F459
:10019000DF91CF91B0C38038910529F48091900010
:1001A0009091910007C08138910541F480918800B9
:1001B000909189009983888381E039C09C012458FB
:1001C00031092230310518F4DF91CF91C6CF88383C
:1001D000910529F480918C0090918D00EBCF8938A6
:1001E000910529F48091780090917900E3CF8B38C4
:1001F000910529F48091970090919800DBCF8A387F
:10020000910529F480917A0090917B00D3CF8039B9
:10021000910511F481B706C08139910539F48FEF4A
:1002200090E09ED990E09983888301C080E0DF91BF
:10023000CF91089580E090E069DF80E090E071DF89
:10024000D29AD39A089510926500089510927B0077
:1002500010927A0010929800109297001092650008
:1002600067D720939A0030939B0040939C00509353
:100270009D0060939E0070939F008093A0009093D8
:10028000A100089521E0280F40916500241708F58A
:1002900030E0F901EC55FF4F90815FEF590F563078
:1002A00018F42A5F3F4F10C09F50923090F48A5F3D
:1002B000841778F490E0FC01EC55FF4F2081820F09
:1002C000911D9C012E5F3F4F50E081E024173507C0
:1002D0000CF080E008952FEF3FEF70E0680F711D84
:1002E000482F50E046175707ACF4FA01EC55FF4F82
:1002F0009081292798E0A9014170552736952795C7
:10030000452B21F041E0242740EA3427915099F70A
:100310008F5FE6CF922F832F0895CF93DF93E1E095
:10032000E80FF0E0EC55FF4F90812FEF290F2630BA
:1003300030F09F50923020F46581695F01C066E023
:10034000E62FF0E0EF01C80FD11DC5DFFE01EC552F
:10035000FF4F2181408130E0342B41E08217930729
:1003600009F040E0842FDF91CF9108951F93CF9340
:10037000DF93182FC62FD0E0C80FD11D212F30E0FA
:100380002C173D077CF460918A0070918B00D90195
:10039000AC55BF4FE0917E00F0917F008C910995A4
:1003A0001F5FECCF8FE697E10197F1F700C00000E7
:1003B000DF91CF911F910895CF93C82F20917A009C
:1003C00030917B002F5F3F4F30937B0020937A006A
:1003D0008091A300811115C0809194008093A400A6
:1003E0009091A20090689093A500C093A60063E04E
:1003F00080E071DF9093A7008093A80065E080E023
:10040000B5DF10926500C03149F48091970090915A
:10041000980001969093980080939700CF9108954B
:1004200080379105A8F09C012B7F2058310922309C
:10043000310570F09C01285831092A30310540F00F
:100440002850310981E02131310518F080E008950C
:1004500081E008956F927F929F92AF92BF92CF9268
:10046000DF92EF92FF920F931F93CF93DF9300D011
:100470001F92CDB7DEB7A82EB12C85010C551F4FAA
:10048000F8019081FF24F3949111F12CF092A300D4
:1004900090909400991519F0FF2009F4F4C0D82E1B
:1004A00080E03BDF882309F4C0C0F801218120935C
:1004B000A200F11056C0233009F053C0E280F12CA5
:1004C000FE2CEE248381E82A848190E0982F8827EF
:1004D00035818C01032BC7012B83A2DF2B8188235D
:1004E00009F44CC01A821982D02EDD0C75E0C72E9B
:1004F000CD0CF0E2FC1598F19092A4002093A50099
:10050000D092A60063E0962EA12CB12CA016B106C5
:1005100009F48EC035016E0C7F1CC30181DF882376
:1005200069F1E0917600F0917700BE016F5F7F4F37
:10053000C30109958823B1F189819A81E92DF0E001
:10054000EC55FF4F9083E1E0E90DF0E0EC55FF4FF3
:100550008083939493948FEFA81AB80AD7CF83E03F
:1005600065C0263009F5F801E280F12CFE2CEE245E
:100570008381E82AC70154DF811102C082E056C09E
:10058000F801648170E0762F66278581682BE09101
:100590007000F0917100C7010995882319F068E097
:1005A0008D2D6EC084E042C02031E9F5F801E28073
:1005B000F12CFE2CEE248381E82A848190E0982F90
:1005C000882725818C01022BC12CD12CC016D10685
:1005D00051F0C6018E0D9F1D23DF882379F2FFEFB6
:1005E000CF1ADF0AF3CFC12CD12CC016D10679F176
:1005F000F601EE0FFF1FEA0DFB1DEC55FF4F678163
:1006000070E0762F66278085682BE0917000F0916E
:100610007100C6018E0D9F1D0995882319F28FEF79
:10062000C81AD80AE2CF81E001C080E1C5DE2BC044
:1006300063E06D0D80E04FDE2C2D30E02C553F4FF8
:10064000F90132979083319680836C2D18C0809188
:1006500094008093A4008091A2008093A500F09262
:10066000A600E092A700D092A800C092A90066E080
:1006700080E031DE9093AA008093AB0068E080E0D8
:1006800075DE109265000F900F900F90DF91CF9163
:100690001F910F91FF90EF90DF90CF90BF90AF90A0
:1006A0009F907F906F9008952F923F924F925F920C
:1006B0006F927F928F929F92AF92BF92CF92DF9272
:1006C000EF92FF920F931F93CF93DF93EC01CF3FF5
:1006D0008FEFD80709F455C02BD519012A013B012A
:1006E0004C01A0909A00B0909B00C0909C00D090CC
:1006F0009D00E0909E00F0909F000091A00010915E
:10070000A100B3D6C7D625E535E549E650E400D7C4
:10071000181614F41092650020929A0030929B00F3
:1007200040929C0050929D0060929E0070929F00AB
:100730008092A0009092A1008091640081110FC06E
:1007400090916500903219F481E080936400E92F64
:10075000F0E0EC55FF4FC0839F5F90936500809160
:100760006400882339F01092640081E125DE8091D5
:100770007A0008C080E086DD882319F080E06ADE18
:1007800001C080E0DF91CF911F910F91FF90EF901A
:10079000DF90CF90BF90AF909F908F907F906F90A1
:1007A0005F904F903F902F90089510928D0010927F
:1007B0008C001092790010927800089590E08617CE
:1007C00040F4E82FF0E0E453FF4F2081920F8F5F59
:1007D000F6CF892F0895EF92FF921F93CF93DF9367
:1007E000182F8CECE82E80E0F82EE7018C2F8E1964
:1007F000811758F46091740070917500E091800049
:10080000F091810089910995F1CFDF91CF911F91EE
:10081000FF90EF900895AF92BF92CF92DF92EF9248
:10082000FF920F931F939EEF9093CC008F7780934E
:10083000CD007093CE006093CF0064E081E0BEDF16
:100840008093D00085E0C7DF73D42093C400309339
:10085000C5004093C6005093C7006093C8007093D2
:10086000C9008093CA009093CB008091740090914E
:10087000750061D3892BE9F48FEC97E00197F1F7CC
:1008800000C0000055D4A090C400B090C500C09036
:10089000C600D090C700E090C800F090C900009159
:1008A000CA001091CB00E1D5AAE0E8D5F1F2E8F258
:1008B0000DC0E0917200F0917300809174009091EE
:1008C000750009959091D000981759F080917800A3
:1008D000909179000196909379008093780080E060
:1008E00001C081E01F910F91FF90EF90DF90CF90BA
:1008F000BF90AF9008957F928F929F92AF92BF92D8
:10090000CF92DF92EF92FF920F931F93CF93DF93DB
:10091000EB019EEF9093CC0080688093CD00809394
:10092000CE0083E058DF3CEC832E30E0932E43E092
:10093000742E780CFDD32093C4003093C5004093EF
:10094000C6005093C7006093C8007093C90080939D
:10095000CA009093CB008091740090917500EBD207
:10096000892BE9F48FEC97E00197F1F700C00000C4
:10097000DFD3A090C400B090C500C090C600D09056
:10098000C700E090C800F090C9000091CA00109123
:10099000CB006BD5AAE072D5F1F2E8F221C0E0916C
:1009A0007200F09173008091740090917500099528
:1009B000F40181934F017E12BDCF9090CE0062E092
:1009C00080E0FCDE98120CC08091CC0090E0982F63
:1009D00088272091CD00822B9983888381E00AC0EB
:1009E00080918C0090918D00019690938D00809362
:1009F0008C0080E0DF91CF911F910F91FF90EF90DD
:100A0000DF90CF90BF90AF909F908F907F90089590
:100A1000D79ADF9883ED93E00197F1F700C00000CB
:100A2000D79895EB9A95F1F7000089B3EBE4F3E0E2
:100A30003197F1F700C000008095881F8827881F34
:100A4000089598E080E0D79A25E02A95F1F7000014
:100A5000D7982AE02A95F1F700C08695CF9980684B
:100A600025EA2A95F1F70000915069F7089598E07A
:100A7000D79A25E02A95F1F7000080FF02C0D798A9
:100A800001C0D79A869525EA2A95F1F70000D798F4
:100A900025E02A95F1F70000915051F70895CF9283
:100AA000DF92FF920F931F93CF93DF938C016B0123
:100AB000AFDFD82F882369F18CECD9DF84E4D7DF4E
:100AC0002FE78AE196E0215080409040E1F700C096
:100AD00000009EDF8CECCBDF8EEBC9DFB2DFC82FCE
:100AE000B0DFF82EAEDFADDFACDF282F30E0F6014F
:100AF00031832083FFE72AE186E0F15020408040E7
:100B0000E1F700C000002C2F30E03F29F8013183CD
:100B100020838D2FDF91CF911F910F91FF90DF9058
:100B2000CF9008958FEF90E01BD591B78F3F81F064
:100B3000981728F49F5F891720F091BFFBCF891782
:100B400010F081E0089591509817D8F391BFFBCF32
:100B500080E0089561B78FEF90E00AC50F931F936F
:100B6000CF93DF93C1B7DFB7F8941FBC1EBC1DBC89
:100B70001CBCCD99FECF21E02EBDCD9BFECF20E049
:100B80002EBD8CB59DB581362DE1920710F0C15078
:100B900004C088339D4100F5CF5FC1BF60918600DE
:100BA00070918700E0918E00F0918F008C2F099555
:100BB00005E010E0E0919500F091960009958FE72F
:100BC00099EA23E0815090402040E1F700C0000006
:100BD0000150110979F7CBCFDFBF8C2F90E0DF9167
:100BE000CF911F910F91089520E001972FEF8F3F34
:100BF0009207D9F70895EF92FF920F931F93CF9327
:100C0000DF93EC018AA19BA1EFDF88E0E82EF12CB5
:100C100001E010E088A199A1E7DFE885F9852A8540
:100C20008081082E000C990B02C0959587952A9516
:100C3000E2F780FF02C0102B03C0802F809518239D
:100C4000000F81E0E81AF10829F78CA19DA1059712
:100C5000CBDFE885F9852A858081082E000C990B69
:100C600002C0959587952A95E2F780FD0CC0111179
:100C70000AC08091820090918300C817D90719F4A7
:100C800081E0809399008C8D2D8D90E001968F707E
:100C9000992730E08217930751F08C8DFE01E80F01
:100CA000F11D14878C8D8F5F8F708C8F04C081E055
:100CB00090E09F8F8E8FDF91CF911F910F91FF90CA
:100CC000EF9008951F920F920FB60F9211242F9359
:100CD0003F934F935F936F937F938F939F93AF93C4
:100CE000BF93EF93FF932CB53DB53093D300209382
:100CF000D20080919900E0918200F09183008823D6
:100D000009F1A085B18542858C91082E000C990BC4
:100D100002C0959587954A95E2F780FF13C010921F
:100D200099008091D60081110AC08091D4009091E1
:100D3000D500281B390B3093D5002093D40081E0D7
:100D40008093D700A085B18522858C91082E000C58
:100D5000990B02C0959587952A95E2F780FD02C010
:100D6000CF0149DF8091920090919300DC011896A9
:100D7000ED91FC9119971A964C912081022E000C4E
:100D8000330B02C0359527954A95E2F720FF33DFF4
:100D9000FF91EF91BF91AF919F918F917F916F9153
:100DA0005F914F913F912F910F900FBE0F901F9029
:100DB0001895CF92DF92EF92FF92DC015C961C9225
:100DC0005C975D961C925D975F961C921E925E9753
:100DD0001B962C911B971496ED91FC91159781E031
:100DE00090E0AC0102C0440F551F2A95E2F79A012A
:100DF0003081232B20831A962C911A971496ED910B
:100E0000FC911597BC0102C0660F771F2A95E2F787
:100E10009B01209530953081232320831A964C9195
:100E20001A971B962C911B971696ED91FC9117978C
:100E3000BC0102C0660F771F2A95E2F702C0880F37
:100E4000991F4A95E2F7862B972B9081892B8083F7
:100E500022E230E080E090E0F901C590D590E59085
:100E6000F4904D915D916D917C911397C416D506C8
:100E7000E606F70609F03DC06CE070E0D9D2FC014F
:100E8000EA5DFF4F2591349193963C932E93929770
:100E9000FC01E85DFF4F2591349191963C932E9390
:100EA0009097FC01E65DFF4F2591349195963C9318
:100EB0002E939497845D9F4FFC0185919491979612
:100EC0009C938E9396978BB780618BBF1A963C91BB
:100ED0001A9722B381E090E001C0880F3A95EAF7B3
:100EE000822B82BB96968D919C9197977DDE78940C
:100EF00007C00196245F3F4F8D30910509F0ACCFBC
:100F0000FF90EF90DF90CF90089512BA0895FC0102
:100F1000958D848D981761F0858DDF01A80FB11D27
:100F20001C968C91958D9F5F9F70958F90E0089592
:100F30008FEF9FEF0895FC01948D258D892F90E010
:100F40004096821B91098F7099270895FC01268D88
:100F5000378D178E168E81E0232B09F480E00895DB
:100F6000AF92BF92DF92EF92FF920F931F93CF93B6
:100F7000DF93FB0126A137A12115310509F459C0E2
:100F8000EB01082F1FB7F89483850680F781E02DC9
:100F900021E030E002C0220F331F8A95E2F720954E
:100FA00030958081282320838EA19FA104961CDE8A
:100FB00088E0E82EF12CDD24D394AA24A394B12C4C
:100FC0008D2D802371F08B85EE81FF81950102C00C
:100FD000220F331F8A95E2F7C9019081892B808304
:100FE0000EC08B85EE81FF81950102C0220F331F59
:100FF0008A95E2F7209530958081282320838EA161
:101000009FA1F2DDDD0C31E0E31AF108C9F62B8572
:10101000EE81FF8181E090E001C0880F2A95EAF718
:101020009081892B80831FBF8EA19FA1DDDD21E0F0
:1010300030E0C901DF91CF911F910F91FF90EF90A8
:10104000DF90BF90AF9008952FB7F894FC01148EF5
:10105000158E2FBF0895FC01958D848D981741F052
:10106000858DE80FF11D8485082E000C990B0895DD
:101070008FEF9FEF089581E09091D700911101C00B
:1010800080E008958091D4001092D7001092D6008D
:1010900008951F920F920FB60F9211242F933F9332
:1010A0004F935F936F937F938F939F93AF93209111
:1010B00068003091690040916A0050916B00609126
:1010C0006C0070916D0080916E0090916F00A1E0B6
:1010D000C0D1209368003093690040936A00509318
:1010E0006B0060936C0070936D0080936E00909322
:1010F0006F00AF919F918F917F916F915F914F9111
:101100003F912F910F900FBE0F901F9018958DE774
:1011100086BF83E080BF8BE083BF89B7816089BFD2
:10112000089589B78E7F89BF16BE10BE13BE08957D
:10113000EFB7F894209168003091690040916A00FF
:1011400050916B0060916C0070916D0080916E0009
:1011500090916F00EFBF0895CF93DF93CDB7DEB7C7
:10116000C65AD1090FB6F894DEBF0FBECDBF84E0DA
:1011700087BBCDDF9E01275D3F4FCF55DF4F3983C2
:101180002883C15AD040AE014F5F5F4FCD55DF4F2E
:1011900059834883C35AD04080EB882E87E0982E2D
:1011A0001092630088E2CF55DF4FE881F981C15A80
:1011B000D040282F11922A95E9F720E835E240E047
:1011C00050E029A73AA74BA75CA74AE350E05EA7E7
:1011D0004DA7EBE3F0E0F8ABEFA729E330E03AAB43
:1011E00029AB95E09BAB96E09CABFE01B996DE0186
:1011F000A758BF4F982F01900D929A95E1F7CD55C2
:10120000DF4FE881F981C35AD040282F11922A95E7
:10121000E9F720E835E240E050E029833A834B8348
:101220005C834AE350E05E834D83EBE3F0E0F887B4
:10123000EF8329E330E03A87298791E09C87FE011C
:101240003196DE01AF5ABF4F01900D928A95E1F7BA
:1012500049E750E04C0F5D1F50938300409382009C
:1012600081E590E08C0F9D1F9093930080939200F6
:1012700080916200882319F00AE010E004C052DC7B
:1012800081113DC0F9CF37D79FEFE0E7F2E09150F1
:10129000E040F040E1F700C000002DD72FE73AE131
:1012A00046E0215030404040E1F700C000000150CE
:1012B000110949F78BE790E0909396008093950091
:1012C00080918200909183009093870080938600A4
:1012D00090928F0080928E006CDD40DC182F609120
:1012E0008200709183008FEF3BDE609182007091ED
:1012F0008300812F35DE2EDC08DE109262009AD743
:10130000809182009091830054DD809192009091B1
:1013100093004FDD80E18093940080918200909152
:10132000830090938B0080938A0090927F0080923C
:101330007E00E2ECF0E0F0937700E09376002CE999
:1013400030E0309371002093700080E890E090933B
:101350008500809384007AD78091920090919300C9
:101360009093750080937400909281008092800029
:1013700087E897E0909373008093720016DABBD6EB
:101380007894D6DE19012A013B01CB55DF4F8883C3
:10139000C55AD040CA55DF4F9883C65AD040809175
:1013A0006300811133C08091820090918300C3DD7E
:1013B000892B31F08091820090918300A8DD74D94F
:1013C00080919900882339F031E0309363003093A5
:1013D000620010929900ACDE510162017301CB559D
:1013E000DF4F0881C55AD040CA55DF4F1881C65A11
:1013F000D0403BD02E3E324041055105610571057C
:101400008105910561F258F276D6BBCF0AE010E073
:1014100072D6FFE729EA33E0F15020403040E1F78F
:1014200000C000000150110999F76FDD7ADEB8CED7
:101430000024552704C0080E591F880F991F0097D4
:1014400029F076956795B8F37105B9F7802D952F3A
:1014500008950024A7FD00942A0F301D401D501D43
:10146000601D701D801D901D08952A193B094C09AF
:101470005D096E097F09800B910B08950024A7FD7B
:1014800000942A1730054005500560057005800559
:1014900090050895E894F92F96EBFF2381F012163A
:1014A00013061406440B9395F695879577956795E3
:1014B00057954040FF23B9F71BC09927089588230B
:1014C00051F49850D2F7872B762F652F542F432F46
:1014D000322F20E0B1F3121613061406440B8823B2
:1014E0003AF09A95440F551F661F771F881FCAF759
:1014F00055234AF4440F551F11F460FF04C06F5F79
:101500007F4F8F4F9F4F880F9695879597F9089536
:1015100003D008F48FEF0895990F0008550FAA0B18
:10152000E0E8FEEF16161706E807F907C0F01216F6
:101530001306E407F50798F0621B730B840B950BF9
:1015400039F40A2661F0232B242B252B21F408954E
:101550000A2609F4A140A6958FEF811D811D0895EB
:10156000E199FECF9FBB8EBBE09A99278DB308957A
:10157000262FE199FECF1CBA9FBB8EBB2DBB0FB6A9
:10158000F894E29AE19A0FBE01960895F894FFCF7D
:02159000040055
:00000001FF
