:100000005EC078C04FC576C075C074C073C072C082
:1000100071C070C06FC03BC76DC06CC06BC06AC0A0
:1000200069C000C20100010005000500030000E1F5
:10003000000001000F000F000D00009600000200FC
:1000400019001A001700127A000007002000210092
:100050001D00807000000B00230023002000004BD7
:1000600000001400370037003400403800001E0044
:100070004B004B00480080250000320072007200E7
:100080007000C01200006E00E900E900E60060099F
:100090000000E500D801D801D501B0040000D3016B
:1000A000B403B403B10358020000B4036707670741
:1000B00062072C0100006707DD0EDD0EDA0E112449
:1000C0001FBECFE5D2E0DEBFCDBF10E0A0E6B0E0BE
:1000D000E8E6F2E102C005900D92A236B107D9F729
:1000E00020E0A2E6B0E001C01D92A13CB207E1F71A
:1000F00031D7B8C885CF98B384E0892788BB0895E5
:10010000882311F0C29A0895C298089580938F00B1
:100110009093900080FF02C0DA9A01C0DA9881E0E3
:100120000895809387009093880080FF02C0DB9A37
:1001300001C0DB9881E008959C01972F203731059D
:1001400010F4822F3FC22038310511F4862FDECF04
:100150002138310511F4862FE4CFC9018458910963
:100160008230910558F004970A9730F02139310513
:1001700029F48FEF90E068D881E0089580E0089539
:10018000FB018438910521F46BE770E0CF015EC379
:100190008538910541F480917B0090917C0091839A
:1001A000808381E0089580E00895CF93DF9300D0AD
:1001B000CDB7DEB78037910538F474D2811158C0BD
:1001C000898399DF898154C08038910529F4809111
:1001D0008F009091900007C08138910549F480917B
:1001E000870090918800FB019183808381E040C06B
:1001F0009C01245831092230310528F40F900F90CA
:10020000DF91CF91BDCF8838910529F480918B0083
:1002100090918C00E8CF8938910529F4809178007D
:1002200090917900E0CF8B38910529F48091960068
:1002300090919700D8CF8A38910521F480917A0067
:1002400090E0D1CF8039910519F481B790E00BC0CF
:100250008139910561F48FEF90E069837A83ECD75F
:1002600090E069817A81FB019183808301C080E005
:100270000F900F90DF91CF91089580E090E046DFDE
:1002800080E090E04EDFD29AD39A089510927A00DF
:10029000109297001092960008954BE950E0FA01F1
:1002A0002FEF3FEF9E2F941B981788F491912927E9
:1002B00098E0B9016170772736952795672B21F073
:1002C00061E0262760EA3627915099F7EBCF922F0D
:1002D000832F0895EF92FF921F93CF93DF93182FF0
:1002E0008BE9E82E80E0F82EE7018C2F8E1981171C
:1002F00058F46091890070918A00E0917D00F0913E
:100300007E0089910995F1CF8FE697E10197F1F78A
:1003100000C00000DF91CF911F91FF90EF900895F2
:10032000CF93C82F90917A009F5F90937A0080912D
:100330009A00811113C08091930080939B0090914B
:100340009900906890939C00C0939D0083E0A5DF86
:1003500090939E0080939F0085E0BCDF1092650023
:10036000C03149F480919600909197000196909346
:10037000970080939600CF91089580379105A8F05B
:100380009C012B7F205831092230310570F09C01EF
:10039000285831092A30310540F02850310981E0D0
:1003A0002131310518F080E0089581E00895DF9251
:1003B000EF92FF920F931F93CF93DF9300D01F9282
:1003C000CDB7DEB79C012F3F8FEF380709F4B8C0D7
:1003D0008091640081110FC090916500903119F4F3
:1003E00081E080936400E92FF0E0E556FF4F208321
:1003F0009F5F9093650080916400882359F010926C
:1004000065001092640080917A0091E0980F9093BB
:100410007A0097C080916500883008F491C090916F
:100420009B00DD24D3949111D12CD0929A0020917D
:100430009300921719F0DD2009F482C060919C00AE
:1004400060939900633039F0663029F081E068DF0D
:1004500080917A0076C0082F10E082506B831DDFF8
:10046000A80145565F4FFA013297208130E0322FC4
:10047000222731964081242B6B818217930709F044
:100480005DC000919D0010E0102F002780919E001C
:10049000082BE0909F00F12CFE2CEE248091A00010
:1004A000E82AD11031C0633079F5C80166DF8823AE
:1004B00089F1EA94EF2831F51A821982E0917600E9
:1004C000F0917700BE016F5F7F4FC80109958823C7
:1004D00089F18091930080939B0080919900809393
:1004E0009C0082E080939D0089819A8190939E0078
:1004F00080939F0085E0D1DE9093A0008093A100BF
:1005000087E014C083E01BC06630B1F4C80135DF5A
:10051000811102C082E013C0E0917000F09171007F
:10052000B701C8010995882329F088E0D3DE10922D
:10053000650006C084E003C081E001C080E1F0DE18
:1005400080E00F900F900F90DF91CF911F910F914E
:10055000FF90EF90DF90089510928C0010928B0026
:100560001092790010927800089590E0861740F478
:10057000E82FF0E0EB54FF4F2081920F8F5FF6CF12
:10058000892F0895EF92FF921F93CF93DF93182F37
:1005900085EBE82E80E0F82EE7018C2F8E1981176D
:1005A00058F46091740070917500E0917F00F091B3
:1005B000800089910995F1CFDF91CF911F91FF9034
:1005C000EF900895AF92BF92CF92DF92EF92FF9299
:1005D0000F931F939EEF9093B5008F778093B60093
:1005E0007093B7006093B80064E081E0BEDF809351
:1005F000B90085E0C7DF9AD42093AD003093AE00F8
:100600004093AF005093B0006093B1007093B2007C
:100610008093B3009093B400809174009091750022
:1006200088D3892BE9F48FEC97E00197F1F700C0AC
:1006300000007CD4A090AD00B090AE00C090AF00A0
:10064000D090B000E090B100F090B2000091B30003
:100650001091B400DCD5AAE0E3D5F1F2E8F20DC0C8
:10066000E0917200F0917300809174009091750098
:1006700009959091B900981759F080917800909160
:1006800079000196909379008093780080E001C012
:1006900081E01F910F91FF90EF90DF90CF90BF907E
:1006A000AF9008957F928F929F92AF92BF92CF9218
:1006B000DF92EF92FF920F931F93CF93DF93EB01A3
:1006C0009EEF9093B50080688093B6008093B7004A
:1006D00083E058DF35EB832E30E0932E43E0742E19
:1006E000780C24D42093AD003093AE004093AF003B
:1006F0005093B0006093B1007093B2008093B30048
:100700009093B400809174009091750012D3892B5E
:10071000E9F48FEC97E00197F1F700C0000006D4F0
:10072000A090AD00B090AE00C090AF00D090B000EF
:10073000E090B100F090B2000091B3001091B400CD
:1007400066D5AAE06DD5F1F2E8F221C0E091720021
:10075000F091730080917400909175000995F401F7
:1007600081934F017E12BDCF9090B70062E080E090
:10077000FCDE98120CC08091B50090E0982F88277D
:100780002091B600822B9983888381E00AC08091F2
:100790008B0090918C00019690938C0080938B003D
:1007A00080E0DF91CF911F910F91FF90EF90DF904C
:1007B000CF90BF90AF909F908F907F900895D79AE1
:1007C000DF9883ED93E00197F1F700C00000D79820
:1007D00095EB9A95F1F7000089B3EBE4F3E03197DC
:1007E000F1F700C000008095881F8827881F0895B2
:1007F00098E080E0D79A25E02A95F1F70000D79895
:100800002AE02A95F1F700C08695CF99806825EAFD
:100810002A95F1F70000915069F7089598E0D79A6A
:1008200025E02A95F1F7000080FF02C0D79801C0AB
:10083000D79A869525EA2A95F1F70000D79825E002
:100840002A95F1F70000915051F70895CF92DF9269
:10085000FF920F931F93CF93DF938C016B01AFDF58
:10086000D82F882369F18CECD9DF84E4D7DF2FE718
:100870008AE196E0215080409040E1F700C00000FE
:100880009EDF8CECCBDF8EEBC9DFB2DFC82FB0DF91
:10089000F82EAEDFADDFACDF282F30E0F60131837C
:1008A0002083FFE72AE186E0F15020408040E1F715
:1008B00000C000002C2F30E03F29F8013183208355
:1008C0008D2FDF91CF911F910F91FF90DF90CF90EF
:1008D00008958FEF90E0B0D491B78F3F81F09817D3
:1008E00028F49F5F891720F091BFFBCF891710F084
:1008F00081E0089591509817D8F391BFFBCF80E025
:10090000089561B78FEF90E09FC40F931F93CF932B
:10091000DF93C1B7DFB7F8941FBC1EBC1DBC1CBC65
:10092000CD99FECF21E02EBDCD9BFECF20E02EBD88
:100930008CB59DB581362DE1920710F0C15004C0F1
:1009400088339D4100F5CF5FC1BF609185007091F4
:100950008600E0918D00F0918E008C2F099505E0C6
:1009600010E0E0919400F091950009958FE799EAE5
:1009700023E0815090402040E1F700C0000001508A
:10098000110979F7CBCFDFBF8C2F90E0DF91CF91AA
:100990001F910F91089520E001972FEF8F3F92074D
:1009A000D9F70895EF92FF920F931F93CF93DF93A0
:1009B000EC018091BB009091BC009093BE008093AD
:1009C000BD0098B381E0892788BBE885F9858A85D1
:1009D0002081022E000C330B02C0359527958A9595
:1009E000E2F720FD58C08AA19BA1D5DF88E0E82E60
:1009F000F12C10E001E088A199A10197CCDFE885F6
:100A0000F9852A858081082E000C990B02C09595E6
:100A100087952A95E2F780FF02C0102B03C0802F34
:100A200080951823000F81E0E81AF10821F78CA1C6
:100A30009DA10597B0DFE885F9852A858081082E7C
:100A4000000C990B02C0959587952A95E2F780FDD9
:100A50000AC08091810090918200C817D90719F4CB
:100A600081E0809398008C8D2D8D90E001968F70A1
:100A7000992730E08217930751F08C8DFE01E80F23
:100A8000F11D14878C8D8F5F8F708C8F04C081E077
:100A900090E09F8F8E8FDF91CF911F910F91FF90EC
:100AA000EF9008951F920F920FB60F9211242F937B
:100AB0003F934F935F936F937F938F939F93AF93E6
:100AC000BF93EF93FF938CB59DB59093BC0080933B
:100AD000BB0080919800882369F1E0918100F0913A
:100AE0008200A085B18522858C91082E000C990B7F
:100AF00002C0959587952A95E2F780FF1BC010925A
:100B000098008091BF00811112C098B381E08927BD
:100B100088BB8091BB009091BC002091BD003091BA
:100B2000BE00821B930B9093BE008093BD0081E0BA
:100B30008093C0008091810090918200DC01189622
:100B4000ED91FC9119971A964C912081022E000C80
:100B5000330B02C0359527954A95E2F720FF22DF37
:100B60008091910090919200DC011896ED91FC919A
:100B700019971A964C912081022E000C330B02C05B
:100B8000359527954A95E2F720FF0CDFFF91EF910D
:100B9000BF91AF919F918F917F916F915F914F9195
:100BA0003F912F910F900FBE0F901F901895CF92ED
:100BB000DF92EF92FF92DC015C961C925C975D964F
:100BC0001C925D975F961C921E925E971B962C91CD
:100BD0001B971496ED91FC91159781E090E0AC0184
:100BE00002C0440F551F2A95E2F79A013081232B4A
:100BF00020831A962C911A971496ED91FC911597D3
:100C0000BC0102C0660F771F2A95E2F79B01209571
:100C100030953081232320831A964C911A971B9686
:100C20002C911B971696ED91FC911797BC0102C071
:100C3000660F771F2A95E2F702C0880F991F4A9521
:100C4000E2F7862B972B9081892B808322E230E07C
:100C500080E090E0F901C590D590E590F4904D9139
:100C60005D916D917C911397C416D506E606F70643
:100C700009F03DC06CE070E0ADD2FC01EA5DFF4FD1
:100C80002591349193963C932E939297FC01E85DC5
:100C9000FF4F2591349191963C932E939097FC01B0
:100CA000E65DFF4F2591349195963C932E93949752
:100CB000845D9F4FFC018591949197969C938E93B0
:100CC00096978BB780618BBF1A963C911A9722B387
:100CD00081E090E001C0880F3A95EAF7822B82BB51
:100CE00096968D919C91979756DE789407C00196C1
:100CF000245F3F4F8D30910509F0ACCFFF90EF900E
:100D0000DF90CF90089512BA0895FC01958D848DDF
:100D1000981761F0858DDF01A80FB11D1C968C918D
:100D2000958D9F5F9F70958F90E008958FEF9FEF57
:100D30000895FC01948D258D892F90E04096821BAB
:100D400091098F7099270895FC01268D378D178E94
:100D5000168E81E0232B09F480E00895AF92BF92B4
:100D6000DF92EF92FF920F931F93CF93DF93FB01DC
:100D700026A137A12115310509F459C0EB01082F2F
:100D80001FB7F89483850680F781E02D21E030E0DD
:100D900002C0220F331F8A95E2F72095309580819B
:100DA000282320838EA19FA10496F5DD88E0E82EFC
:100DB000F12CDD24D394AA24A394B12C8D2D80236F
:100DC00071F08B85EE81FF81950102C0220F331FE8
:100DD0008A95E2F7C9019081892B80830EC08B85AB
:100DE000EE81FF81950102C0220F331F8A95E2F741
:100DF000209530958081282320838EA19FA1CBDD73
:100E0000DD0C31E0E31AF108C9F62B85EE81FF8194
:100E100081E090E001C0880F2A95EAF79081892B44
:100E200080831FBF8EA19FA1B6DD21E030E0C90104
:100E3000DF91CF911F910F91FF90EF90DF90BF90C6
:100E4000AF9008952FB7F894FC01148E158E2FBF24
:100E50000895FC01958D848D981741F0858DE80FDC
:100E6000F11D8485082E000C990B08958FEF9FEFDC
:100E7000089581E09091C000911101C080E0089533
:100E80008091BD001092C0001092BF0008951F9283
:100E90000F920FB60F9211242F933F934F935F93AE
:100EA0006F937F938F939F93AF93209168003091BE
:100EB000690040916A0050916B0060916C007091E4
:100EC0006D0080916E0090916F00A1E094D120930D
:100ED00068003093690040936A0050936B00609300
:100EE0006C0070936D0080936E0090936F00AF91D3
:100EF0009F918F917F916F915F914F913F912F9132
:100F00000F900FBE0F901F9018958DE786BF83E05E
:100F100080BF8BE083BF89B7816089BF089589B79F
:100F20008E7F89BF16BE10BE13BE0895EFB7F8942A
:100F3000209168003091690040916A0050916B00E7
:100F400060916C0070916D0080916E0090916F00C7
:100F5000EFBF0895CF93DF93CDB7DEB7C45AD10961
:100F60000FB6F894DEBF0FBECDBF84E087BBCDDFE8
:100F70009E01275D3F4FCF55DF4F39832883C15AEC
:100F8000D04020E8422E25E2522E612C712C3BE30A
:100F9000E32EF12C49E3C42ED12C5E0139E7A30ED8
:100FA000B11C9E012F5F3F4FCD55DF4F3983288302
:100FB000C35AD0404E0131E5830E911C0EEA16E073
:100FC0001092630088E2CF55DF4FE881F981C15A62
:100FD000D040282F11922A95E9F749A65AA66BA668
:100FE0007CA6EAE3F0E0FEA7EDA7F8AAEFA6DAAA4E
:100FF000C9AA95E09BAB96E09CABFE01B996D501E2
:10100000982F01900D929A95E1F7CD55DF4FE88129
:10101000F981C35AD040282F11922A95E9F74982C5
:101020005A826B827C82EAE3F0E0FE83ED83F886ED
:10103000EF82DA86C98691E09C87FE013196D40161
:1010400001900D928A95E1F7B0928200A092810002
:10105000909292008092910080916200882321F00A
:101060009AE0292E312C04C034DC81113EC0F8CF27
:1010700042D8FFEF20E732E0F15020403040E1F766
:1010800000C0000038D88FE79AE1E6E08150904038
:10109000E040E1F700C00000F1E02F1A310841F70D
:1010A0002BE730E0309395002093940080918100ED
:1010B00090918200909386008093850010938E001B
:1010C00000938D0074DD21DC382E609181007091D9
:1010D00082008FEF43DE6091810070918200832D4A
:1010E0003DDE0FDC10DE10926200C7D880918100D7
:1010F000909182005CDD809191009091920057DD8B
:1011000080E1809393008091810090918200909380
:101110008A008093890010937E0000937D0085ED06
:1011200090E09093770080937600ECE9F0E0F09304
:101130007100E093700080E890E0909384008093C9
:101140008300A4D8809191009091920090937500B3
:10115000809374001093800000937F0085E896E0F0
:101160009093730080937200F7D9C5D77894332495
:10117000339480916300811119C080918100909116
:101180008200D7DD892B39F0B6D78091810090910C
:101190008200BBDD0CD980919800882351F33092F6
:1011A00063003092620010929800E3CF8AE0282E0C
:1011B000312CA1D7FFE729EA33E0F150204030403D
:1011C000E1F700C0000081E0281A310891F79BDDAB
:1011D000A6DEF6CE0024552704C0080E591F880F3E
:1011E000991F009729F076956795B8F37105B9F7BF
:1011F000802D952F08950024A7FD00942A0F301DFF
:10120000401D501D601D701D801D901D08952A19E0
:101210003B094C095D096E097F09800B910B08950C
:101220000024A7FD00942A173005400550056005ED
:101230007005800590050895E199FECF9FBB8EBB98
:10124000E09A99278DB30895262FE199FECF1CBA15
:101250009FBB8EBB2DBB0FB6F894E29AE19A0FBEEE
:0812600001960895F894FFCFF8
:02126800040080
:00000001FF
