:1000000010C01FC01EC01DC01CC01BC01AC019C01C
:1000100018C017C016C015C014C013C012C011C03C
:1000200010C011241FBECFE5D2E0DEBFCDBF20E05F
:10003000A0E6B0E001C01D92AE38B207E1F781D270
:10004000ADC2DECFFB018037910528F481E090E05E
:100050009183808308958038910529F480916A0006
:1000600090916B000EC09C0124583109223031055B
:1000700018F483E090E005C08838910531F484E0FD
:1000800090E09183808381E0089580E00895882343
:1000900011F0C29A0895C298089580936A009093CF
:1000A0006B0080FF02C0DA9A01C0DA9880916A0082
:1000B00081FF02C0DB9A01C0DB9881E008959C01BA
:1000C000CB012037310578F02038310509F4E5CF30
:1000D000C90184589109029730F081E02838310530
:1000E00019F080E0089581E0089580E090E0D5DF88
:1000F0008AB38C608ABB08959FB7F894DD98D59831
:100100002FE280E8CD99FECF2150F1F721E2CD9981
:1001100008948795C8F72A95F1F79FBF0895CF9364
:10012000DF939FB7F894DE9AD69ADE980BB2E3E09D
:10013000C0E2DC2FDA95F1F780FB06F8E6958795AB
:100140000BBAB9F79FBFDF91CF910895CF93DF939B
:10015000EC018991882311F0E2DFFBCFDF91CF9191
:1001600008959FB7F894D898D0982FE280E8C8995E
:10017000FECF2150F1F721E2C89908948795C8F77E
:100180002A95F1F79FBF0895CF93DF939FB7F89417
:10019000D99AD19AD9980BB2E3E0C0E2DC2FDA9574
:1001A000F1F780FB01F8E69587950BBAB9F79FBF89
:1001B000DF91CF91089546E750E0FA012FEF3FEF2E
:1001C0009E2F941B981788F49191292798E0B901E4
:1001D0006170772736952795672B21F061E02627F8
:1001E00060EA3627915099F7EBCF922F832F08952D
:1001F000EF92FF921F93CF93DF93182F86E7E82E9D
:1002000080E0F82EE7018C2F8E19811738F4E091E9
:100210006C00F0916D0089910995F5CF8DEE92E01B
:100220000197F1F700C00000DF91CF911F91FF907F
:10023000EF900895909174009F5F90937400909157
:100240007500911113C09091720090937600909177
:1002500073009068909377008093780083E0ABDF21
:100260009093790080937A0085E0C2DF109261005C
:1002700008959C018037910568F08038910551F010
:1002800084589109029730F081E02838310519F03F
:1002900080E0089581E00895EF92FF920F931F93FD
:1002A000CF93DF9300D0CDB7DEB79091600091116E
:1002B0000FC090916100903119F421E0209360000B
:1002C000E92FF0E0EA58FF4F80839F5F9093610031
:1002D00080916000882359F01092610010926000B4
:1002E0008091740091E0980F909374009EC080916B
:1002F0006100883008F498C02091760091E02111C7
:1003000090E09093750030917200231719F09923B3
:1003100009F48AC090917700933039F0963029F033
:1003200081E088DF8091740080C0082F10E0825047
:1003300042DFA8014A585F4FFA013297208130E02E
:10034000322F222731964081242B8217930709F000
:1003500069C0E0917000F091710081E00995809191
:100360007700809373000091780010E0102F002731
:1003700090917900092BE0907A00F12CFE2CEE246C
:1003800090917B00E92A90917500911131C08330E2
:1003900079F5C8016EDF882389F1EA94EF2831F5F9
:1003A0001A821982E0916600F0916700BE016F5FCA
:1003B0007F4FC8010995882389F18091720080934D
:1003C0007600809173008093770082E080937800BC
:1003D00089819A819093790080937A0085E0EBDEA1
:1003E00090937B0080937C0087E014C083E01BC067
:1003F0008630B1F4C8013DDF811102C082E013C034
:10040000E0916400F0916500B701C8010995882367
:1004100029F088E0EDDE1092610006C084E003C0A0
:1004200081E001C080E106DF80E00F900F90DF9156
:10043000CF911F910F91FF90EF90089590E0861754
:1004400040F4E82FF0E0E857FF4F2081920F8F5FD4
:10045000F6CF892F0895EF92FF921F93CF93DF93EA
:10046000182F88E8E82E80E0F82EE7018C2F8E19EF
:10047000811738F4E0916800F0916900899109953D
:10048000F5CFDF91CF911F91FF90EF9008959EEFF0
:10049000909388008F778093890070938A0060938F
:1004A0008B0064E081E0CADF80938C0085E090E0FF
:1004B000D2DFE0916E00F0916F00099591E02091FC
:1004C0008C00281390E0892F08950F931F93CF93EA
:1004D0008B019EEF909388008068809389008093C1
:1004E0008A0083E090E0B7DFE0916E00F0916F004A
:1004F000099580938800E0916E00F0916F00099556
:1005000080938900E0916E00F0916F000995C82FEB
:1005100080938A0062E080E091DFC8130DC0809173
:10052000880090E0982F882720918900822BF8017D
:100530009183808381E001C080E0CF911F910F9172
:10054000089584E087BBD1DD80E1809372008FE85D
:1005500090E090936D0080936C0082E290E0909325
:100560006700809366008FE590E09093650080932C
:10057000640087E490E0909371008093700084ECB5
:1005800090E0909369008093680081EB90E09093F5
:100590006F0080936E00B0DD7FDEFDCFF894FFCF5B
:00000001FF
