:1000000010C02AC029C028C027C026C025C024C0CF
:1000100023C022C021C020C01FC01EC01DC01CC0E4
:100020001BC011241FBECFE5D2E0DEBFCDBF10E064
:10003000A0E6B0E0EAE0F1E002C005900D92AA3639
:10004000B107D9F710E0AAE6B0E001C01D92AA36C8
:10005000B107E1F721D057C0D3CFCF93DF93DC01B5
:100060008C918823B1F011969FB7F894C09AB89AF2
:10007000C09808B2E3E0C0E2DC2FDA95F1F780FB2C
:1000800000F8E695879508BAB9F79FBF8D91882348
:1000900059F7DF91CF910895CF93DF93CDB7DEB7B6
:1000A00060970FB6F894DEBF0FBECDBF80E690E03C
:1000B000D4DFFE0131968F0101C041938FB7F894D0
:1000C000C198B9982FE240E8B199FECF2150F1F7DD
:1000D00021E2B19908944795C8F72A95F1F78FBFA7
:1000E0004A3031F0CF01801B910B893091052CF300
:1000F000108283EC99E00197F1F700C00000C8017D
:0A010000ACDFF801DBCFF894FFCF6D
:0A010A005452414E534D49540A006F
:00000001FF
