S01500006D6F646275735F6465766963652E73726563B6
S11300005EC078C0BFC576C075C074C073C072C00E
S113001071C070C06FC0B8C36DC06CC06BC06AC023
S113002069C000C20100010005000500030000E1F1
S1130030000001000F000F000D00009600000200F8
S113004019001A001700127A00000700200021008E
S11300501D00807000000B00230023002000004BD3
S113006000001400370037003400403800001E0040
S11300704B004B00480080250000320072007200E3
S11300807000C01200006E00E900E900E60060099B
S11300900000E500D801D801D501B0040000D30167
S11300A0B403B403B10358020000B403670767073D
S11300B062072C0100006707DD0EDD0EDA0E112445
S11300C01FBECFE5D2E0DEBFCDBF10E0A0E6B0E0BA
S11300D0E2E4F3E102C005900D92A036B107D9F72E
S11300E020E0A0E6B0E001C01D92AD3BB207E1F70D
S11300F008D225C985CF10927F0010927E001092FD
S11301007100109270000895861758F490E0E82F5B
S1130110F0E0E058FF4F2081920F8F5F8613F7CFF6
S113012001C090E0892F08950F931F93CF93DF931D
S1130130082F882381F0C0E8D0E010E060916E00C1
S113014070916F00E0917200F091730089910995AC
S11301501F5F1013F3CFDF91CF911F910F9108957B
S1130160AF92BF92CF92DF92EF92FF920F931F93C1
S11301709EEF909380008F7780938100709382002C
S11301806093830064E081E0BFDF8093840085E0B6
S1130190CBDF49D3209376003093770040937800E7
S11301A05093790060937A0070937B0080937C0075
S11301B090937D0027C089EF90E00197F1F700C08C
S11301C0000031D3A0907600B0907700C090780002
S11301D0D0907900E0907A00F0907B0000917C0050
S11301E010917D0081D8AAE088D861F058F0809100
S11301F0700090917100019690937100809370004B
S113020080E020C080916E0090916F002ED6892BE3
S113021091F2E0916C00F0916D0080916E009091EC
S11302206F00099590918400981759F0809170009F
S1130230909171000196909371008093700080E01A
S113024001C081E01F910F91FF90EF90DF90CF905C
S1130250BF90AF9008956F927F928F929F92AF92CA
S1130260BF92CF92DF92EF92FF920F931F93CF939F
S1130270DF933B019EEF9093800080688093810020
S11302808093820083E050DFC0E8D0E00F2EF3E8D3
S11302908F2EF0E09F2EF02DC6D22093760030935F
S11302A07700409378005093790060937A007093BC
S11302B07B0080937C0090937D0027C089EF90E0C1
S11302C00197F1F700C00000AED2A0907600B09084
S11302D07700C0907800D0907900E0907A00F09098
S11302E07B0000917C0010917D00FED7AAE005D828
S11302F061F058F080917E0090917F000196909378
S11303007F0080937E0080E033C080916E009091E6
S11303106F00ABD5892B91F2E0916C00F0916D00E8
S113032080916E0090916F0009958993C815D90545
S113033009F0B2CFC091820062E080E0E5DEC8132C
S11303400DC08091800090E0982F88272091810033
S1130350822BF3019183808381E00AC080917E0027
S113036090917F00019690937F0080937E0080E0BF
S1130370DF91CF911F910F91FF90EF90DF90CF907D
S1130380BF90AF909F908F907F906F900895882337
S113039011F0C29A0895C298089598B384E0892709
S11303A088BB089580939C0090939D0080FF02C0B9
S11303B0DA9A01C0DA9881E00895809396009093C8
S11303C0970080FF02C0DB9A01C0DB9881E00895AA
S11303D08037910510F4C4DE08958038910519F42E
S11303E0CB01E0DF08958138910519F4CB01E5DFF5
S11303F0089580E00895FB018438910529F46EE89E
S113040070E0CF016BD208958538910541F4809155
S11304108E0090918F009183808381E0089580E025
S11304200895CF93DF93EB018037910510F413DF28
S11304305CC08038910541F480919C0090919D00AE
S11304409983888381E051C08138910541F480917A
S11304509600909197009983888381E046C09C011F
S1130460245831092230310510F4C5DF3EC08838E4
S1130470910541F480917E0090917F009983888357
S113048081E033C08938910541F4809170009091E6
S113049071009983888381E028C08B38910541F4E9
S11304A08091A1009091A2009983888381E01DC06E
S11304B08A38910539F480918D0090E0998388837E
S11304C081E013C08039910529F481B790E09983C4
S11304D0888309C08139910539F48FEF90E019D7E9
S11304E090E09983888301C080E0DF91CF910895E3
S11304F080E090E057DF80E090E05FDFD29AD39A0B
S11305000895CF93DF93CDB7DEB7C45AD1090FB6A0
S1130510F894DEBF0FBECDBF84E087BB73D19E01CC
S1130520275D3F4FCF55DF4F39832883C15AD040D1
S11305300F2EF0E8CF2EF5E2DF2EE12CF12CF02D7A
S11305400F2EFAE32F2E312CF02D0F2EF9E34F2E20
S1130550512CF02D5E0139E7A30EB11CCE0101969A
S1130560CD55DF4F99838883C35AD0403E0191E52E
S1130570690E711C0FE317E01092610088E2CF55F9
S1130580DF4FE881F981C15AD040282F11922A9572
S1130590E9F7C9A6DAA6EBA6FCA63EA62DA6EBE3D0
S11305A0F0E0F8ABEFA75AAA49AA95E09BAB96E016
S11305B09CAB98E2FE01B996D50101900D929A95F3
S11305C0E1F7CD55DF4FE881F981C35AD04011924C
S11305D08A95E9F7C982DA82EB82FC823E822D8217
S11305E02BE330E038872F835A86498681E08C8755
S11305F088E2FE013196D30101900D928A95E1F7CC
S1130600B0927500A0927400709287006092860088
S1130610809160008111B2C0A3D181113AC0AEC0F3
S1130620BCDE87EA91E60197F1F700C00000B5DE71
S1130630E3E2F4EF3197F1F700C00000F1E08F1A24
S113064091088114910461F72DEC31E03093A000FE
S113065020939F0080917400909175009093950071
S11306608093940010939B0000939A0006D3A4D126
S1130670982E60917400709175008FEF00D4609192
S1130680740070917500892DFAD391D1D8D310924A
S113069060002EDF8091740090917500EED28091FD
S11306A0860090918700E9D280E180939E0080913A
S11306B07400909175009093990080939800109322
S11306C091000093900081E192E090938C008093DC
S11306D08B00E8EEF1E0F0938A00E093890087EC68
S11306E091E0909393008093920057D48091860078
S11306F09091870090936F0080936E001093730025
S11307000093720081E297E090936D0080936C00F7
S1130710F2DC43DE789499249394809161008111F2
S113072018C080917400909175009FD3892B31F08B
S1130730809174009091750084D3CCD4809188000A
S1130740882359F39092610090926000109288007F
S1130750E4CF0F2EFAE08F2EF02D912C1EDE8BE7C6
S113076092E90197F1F700C0000091E0891A91081D
S11307708114910499F763D34FD0FECE0F2EFAE083
S11307808F2EF02D912C4CCF1F920F920FB60F92FB
S113079011242F933F934F935F936F937F938F9382
S11307A09F93AF9320916200309163004091640065
S11307B050916500609166007091670080916800B7
S11307C090916900A1E084D5209362003093630086
S11307D040936400509365006093660070936700D3
S11307E08093680090936900AF919F918F917F915E
S11307F06F915F914F913F912F910F900FBE0F908A
S11308001F9018958DE786BF83E080BF8BE083BF80
S113081089B7816089BF089589B78E7F89BF16BE65
S113082010BE13BE0895EFB7F89420916200309182
S1130830630040916400509165006091660070917E
S113084067008091680090916900EFBF0895D79A7E
S1130850DF9883ED93E00197F1F700C00000D7988B
S113086095EB9A95F1F7000089B3EBE4F3E0319747
S1130870F1F700C000008095881F8827881F08951D
S113088098E080E0D79A25E02A95F1F70000D79800
S11308902AE02A95F1F700C08695CF99806825EA69
S11308A02A95F1F70000915069F7089598E0D79AD6
S11308B025E02A95F1F7000080FF02C0D79801C017
S11308C0D79A869525EA2A95F1F70000D79825E06E
S11308D02A95F1F70000915051F70895DF92EF92B5
S11308E0FF920F931F93CF93DF93EC018B01AFDF44
S11308F0F82E882361F18CECD9DF84E4D7DF2FE76D
S11309008AE196E0215080409040E1F700C0000069
S11309109EDF8CECCBDF8EEBC9DFB2DFD82EB0DFED
S1130920E82EAEDFADDFACDF482F50E0F801518395
S11309304083FFE72AE186E0F15020408040E1F760
S113094000C000002D2D30E03E29398328838F2DEF
S1130950DF91CF911F910F91FF90EF90DF90089559
S11309608FEF90E0D6D491B78F3FA9F0981748F451
S11309709F5F891790F08F5F91BF9F5F9813FCCFA3
S11309800EC0891770F49150981768F091BF915078
S11309909817E0F70AC080E0089581E0089581E0A7
S11309A0089581E0089581E0089581E0089561B794
S11309B08FEF90E0B6D40895EF92FF920F931F93B8
S11309C0CF93DF9311B7EFB6F8941FBC1EBC0F2E64
S11309D0F5E0FF2EF02D00E01DBC1CBCCD99FECF30
S11309E021E02EBDCD9BFECF20E02EBD2CB53DB524
S11309F021368DE1380710F0115004C028333D41F1
S1130A00E8F41F5F11BF6091940070919500E0912C
S1130A109A00F0919B00812F0995CF2DD02FE09162
S1130A209F00F091A00009958BE792E90197F1F7F7
S1130A3000C000002197209791F7CECFEFBE812F01
S1130A4090E0DF91CF911F910F91FF90EF90089567
S1130A50DC018091A3009091A4009093A600809360
S1130A60A50098B381E0892788BB1896ED91FC9185
S1130A7019971A962C911A97808190E002C0959547
S1130A8087952A95E2F780FD7CC092968D919C9182
S1130A90939720E001972FEF8F3F9207D9F788E0D3
S1130AA090E051E040E070E09096ED91FC919197D8
S1130AB03197272F31972FEFEF3FF207D9F7189689
S1130AC0ED91FC9119971A966C911A97208130E058
S1130AD002C0359527956A95E2F720FF02C0452BA1
S1130AE003C0252F20954223550F01970097E1F667
S1130AF094968D919C919597059720E001972FEFFF
S1130B008F3F9207D9F71896ED91FC9119971A9691
S1130B102C911A97808190E002C0959587952A952B
S1130B20E2F780FD0AC08091740090917500A817C7
S1130B30B90719F481E0809388005C962C915C9746
S1130B405D968C915D9730E02F5F3F4F2F70332778
S1130B5090E02817390779F05C968C915C97FD0139
S1130B60E80FF11D44875C968C915C978F5F8F70C2
S1130B705C968C93089581E090E05F969C938E93AD
S1130B805E9708951F920F920FB60F9211242F9320
S1130B903F934F935F936F937F938F939F93AF9301
S1130BA0BF93EF93FF938CB59DB59093A40080936E
S1130BB0A30080918800882359F1E0917400F0919A
S1130BC07500A085B18522858C9190E002C0959531
S1130BD087952A95E2F780FF1BC0109288008091C8
S1130BE0A700811112C098B381E0892788BB809146
S1130BF0A3009091A4002091A5003091A600821B2F
S1130C00930B9093A6008093A50081E08093A800A5
S1130C10E0917400F0917500A085B18522858C91D6
S1130C2090E002C0959587952A95E2F780FD02C071
S1130C30CF010EDFE0918600F0918700A085B18599
S1130C4022858C9190E002C0959587952A95E2F7CC
S1130C5080FD02C0CF01FCDEFF91EF91BF91AF9107
S1130C609F918F917F916F915F914F913F912F91C0
S1130C700F900FBE0F901F9018950F931F93CF9353
S1130C80DF93DC015C961C925C975D961C925D97E9
S1130C905F961C921E925E971496ED91FC911597A7
S1130CA01B962C911B9781E090E0AC0102C0440F8D
S1130CB0551F2A95E2F79A013081232B208314963D
S1130CC0ED91FC9115971A962C911A97BC0102C0CC
S1130CD0660F771F2A95E2F79B0120953081232325
S1130CE020831696ED91FC9117971A962C911A97DA
S1130CF01B964C911B97BC0102C0660F771F2A9567
S1130D00E2F702C0880F991F4A95E2F7862B2081EB
S1130D10822B8083E2E2F0E04591559165917491D4
S1130D200D911D912D913C911397041715072607DA
S1130D303707A9F0CEE2D0E081E090E0FE014591D2
S1130D405591659174910D911D912D913C9113973D
S1130D50041715072607370709F066C002C080E0AC
S1130D6090E0FC01EE0FFF1FE80FF91FEE0FFF1FCD
S1130D70EE0FFF1FEA5DFF4F2591349193963C934C
S1130D802E939297FC01EE0FFF1FE80FF91FEE0F51
S1130D90FF1FEE0FFF1FE85DFF4F259134919196E1
S1130DA03C932E939097FC01EE0FFF1FE80FF91F61
S1130DB0EE0FFF1FEE0FFF1FE65DFF4F25913491ED
S1130DC095963C932E939497FC01EE0FFF1F8E0F84
S1130DD09F1FFC01EE0FFF1FEE0FFF1FE45DFF4F8F
S1130DE08591949197969C938E9396978BB78061F7
S1130DF08BBF42B31A968C911A9721E030E0B90167
S1130E0002C0660F771F8A95E2F7CB01842B82BB61
S1130E1096968D919C91979720E001972FEF8F3FA5
S1130E209207D9F7789406C001962C968D309105D7
S1130E3009F084CFDF91CF911F910F91089512BAD9
S1130E400895FC01958D848D981761F0858DDF01DF
S1130E50A80FB11D1C968C91958D9F5F9F70958FE7
S1130E6090E008958FEF9FEF0895FC01848D258D08
S1130E7090E04096821B91098F70992708950F93F3
S1130E801F93CF93DF93DB0196962D913C91979717
S1130E90232B09F47BC0CFB7F8941696ED91FC91FF
S1130EA017971B969C911B9721E030E002C0220FFC
S1130EB0331F9A95E2F720959081292320839696F3
S1130EC0ED91FC919797349620E031972FEFEF3F07
S1130ED0F207D9F728E030E091E041E050E0D0E0BB
S1130EE0692F682391F01696ED91FC9117971B9644
S1130EF06C911B978A0102C0000F111F6A95E2F7DB
S1130F00B8017081672B608312C01696ED91FC9135
S1130F1017971B966C911B978A0102C0000F111F33
S1130F206A95E2F7B80160957081672360839696AD
S1130F30ED91FC9197976D2F31976FEFEF3FF60787
S1130F40D9F7990F215031092115310549F6169623
S1130F50ED91FC9117971B962C911B9781E090E0E3
S1130F6002C0880F991F2A95E2F79081892B80830C
S1130F70CFBF96968D919C91979720E001972FEF84
S1130F808F3F9207D9F781E090E002C080E090E0C3
S1130F90DF91CF911F910F91089510928D001092BF
S1130FA0A2001092A10008958823F1F0EBEAF0E08A
S1130FB08150482F50E044555F4F8FEF9FEF78E00A
S1130FC021918227672F9C0121703327969587955D
S1130FD0232B21F021E0822720EA9227615099F700
S1130FE0E417F50769F702C08FEF9FEF9827892769
S1130FF0982708950F931F93CF93DF938823A1F02D
S1131000CBEAD0E08150082F10E004551F4F6091C7
S1131010980070919900E0919000F091910089916D
S11310200995C017D10799F78DEE92E00197F1F772
S113103000C00000DF91CF911F910F910895CF93CD
S1131040C82F80918D008F5F80938D008091AA00BE
S1131050811113C080919E008093AB008091A90000
S113106080688093AC00C093AD0083E09DDF9093D3
S1131070AE008093AF0085E0BDDF10926B00C031FD
S113108049F48091A1009091A20001969093A2004E
S11310908093A100CF91089580379105A8F09C0119
S11310A02B7F205831092230310580F09C012858CB
S11310B031092A30310560F02850310981E02131AD
S11310C0310538F080E0089581E0089581E00895C5
S11310D081E00895AF92BF92CF92DF92EF92FF9298
S11310E00F931F93CF93DF9300D0CDB7DEB78F3F1D
S11310F02FEF920709F4DAC020916A00211114C07D
S113110030916B00303119F421E020936A00E32F11
S1131110F0E0E555FF4F808301E0030F00936B007F
S113112080916A00882359F010926B0010926A0033
S113113080918D0091E0980F90938D00BCC0083091
S113114008F4B6C08091AB00FF24F3948111F12C14
S1131150F092AA0090919E00891719F0FF2009F4DB
S1131160A9C0E090AC00E092A90063E0E61641F06B
S113117076E0E71629F081E062DF80918D009BC064
S113118010E08FEF830F10DF980125553F4FF901D1
S11311903297408150E0542F442731962081BA0180
S11311A0622B9B018217930709F07CC0C090AD00AD
S11311B0D12CDC2CCC248091AE00C82A0091AF0045
S11311C010E0102F00278091B000082B5801F11077
S11311D047C073E0E71244C0C6015EDF8823E1F133
S11311E0AA94AB28A9F51A821982E0918B00F09198
S11311F08C00BE016F5F7F4FC6010995882321F1E2
S1131200000F15E0100F80919E008093AB00809139
S1131210A9008093AC000093AD0089819A819093DA
S1131220AE008093AF0083E0800FBEDE212F30E05C
S113123025553F4FF9013297908331968083812F52
S1131240D9DE10926B0002C084E0F9DE80E033C086
S113125083E0F5DE80E02FC082E0F1DE80E02BC089
S113126026E0E2121BC0C60117DF882399F0E09143
S11312708900F0918A00B801C6010995882331F0EC
S113128088E0B8DE10926B0080E015C084E0D7DE01
S113129080E011C082E0D3DE80E00DC081E0CFDECB
S11312A080E009C080E1CBDE80E005C080E003C0BF
S11312B080E001C080E00F900F90DF91CF911F91EB
S11312C00F91FF90EF90DF90CF90BF90AF90089573
S11312D00024A7FD00942A0F301D401D501D601DE1
S11312E0701D801D901D08952A193B094C095D0944
S11312F06E097F09800B910B08950024A7FD0094CB
S11313002A173005400550056005700580059005D5
S11313100895E199FECF9FBB8EBBE09A99278DB3C8
S11313200895262FE199FECF1CBA9FBB8EBB2DBB1F
S11313300FB6F894E29AE19A0FBE01960895F894D4
S1051340FFCFD9
S9030000FC
