S016000054696E79536F667453657269616C2E737265636E
S11300005EC078C0EAC176C075C074C073C072C0E7
S113001071C070C06FC06EC06DC06CC06BC06AC070
S113002069C000C20100010005000500030000E1F1
S1130030000001000F000F000D00009600000200F8
S113004019001A001700127A00000700200021008E
S11300501D00807000000B00230023002000004BD3
S113006000001400370037003400403800001E0040
S11300704B004B00480080250000320072007200E3
S11300807000C01200006E00E900E900E60060099B
S11300900000E500D801D801D501B0040000D30167
S11300A0B403B403B10358020000B403670767073D
S11300B062072C0100006707DD0EDD0EDA0E112445
S11300C01FBECFE5D2E0DEBFCDBF10E0A0E6B0E0BA
S11300D0E8E5F6E002C005900D92A036B107D9F725
S11300E020E0A0E6B0E001C01D92A238B207E1F71B
S11300F06BD0B0C285CFD79ADF9883ED93E0019798
S1130100F1F700C00000D79895EB9A95F1F700003D
S113011089B38078809376008BE493E00197F1F7BC
S113012000C00000089598E080E0D79A25E02A9561
S1130130F1F70000D7982AE02A95F1F700C08695D8
S1130140CF99806825EA2A95F1F70000915069F764
S1130150089598E0D79A25E02A95F1F7000080FFEA
S113016002C0D79801C0D79A869525EA2A95F1F757
S11301700000D79825E02A95F1F70000915051F737
S113018008950F931F93CF93DF93B5DF8CECE1DFDA
S11301908EEBDFDFC1E6D0E00AE610E0C4DF89932E
S11301A0C017D107D9F7DF91CF911F910F9108950F
S11301B01FBC81E08EBD1DBC1CBC15BC14BC1BBC8B
S11301C01ABC19BC18BC0895CF93DF93CDB7DEB722
S11301D0C05AD1090FB6F894DEBF0FBECDBFE8DF19
S11301E0FE01E758FF4F18E2DF01212F1D922A95E7
S11301F0E9F70F2EF0E8CF2EF5E2DF2EE12CF12CFB
S1130200F02DC082D182E282F3826AE370E07583CA
S113021064834BE350E05783468329E330E031871E
S1130220208785E0828781E0838708E2CE010196FA
S1130230DC0101900D920A95E1F7FE01EF5AFF4FA0
S1130240DF011D921A95E9F7C082D182E282F3821E
S113025075836483578346833187208724E022870C
S113026028E2DE01999601900D922A95E1F7909388
S1130270780080937700889690937A008093790031
S113028003D18091770090917800FED08FEF87BBE7
S113029078DFBFE72AE186E0B15020408040E1F7F3
S11302A000C000009FE7AAE1B6E09150A040B04032
S11302B0E1F700C00000ECCFDC0180917B0090915D
S11302C07C0090937E0080937D0098B381E0892721
S11302D088BB1896ED91FC9119971A962C911A9750
S11302E0808190E002C0959587952A95E2F780FD7C
S11302F073C092968D919C91939720E001972FEF74
S11303008F3F9207D9F788E090E041E050E070E039
S11303109096ED91FC9191973197272F31972FEF7C
S1130320EF3FF207D9F71896ED91FC9119971A96B9
S11303306C911A97208130E002C0359527956A9513
S1130340E2F720FF02C0542B03C0242F2095522330
S1130350440F0197E9F694968D919C919597059792
S113036020E001972FEF8F3F9207D9F71896ED9170
S1130370FC9119971A962C911A97808190E002C0EB
S1130380959587952A95E2F780FD03C081E08093D7
S113039081005C968C915C975D962C915D9790E0C2
S11303A001968F70992730E08217930779F05C9655
S11303B08C915C97FD01E80FF11D54875C968C913C
S11303C05C978F5F8F705C968C93089581E090E0CA
S11303D05F969C938E935E9708951F920F920FB62B
S11303E00F9211242F933F934F935F936F937F93B7
S11303F08F939F93AF93BF93EF93FF938CB59DB56A
S113040090937C0080937B00809181008823E9F0A5
S1130410CC9B1BC01092810080917F00811112C07F
S113042098B381E0892788BB80917B0090917C0000
S113043020917D0030917E00821B930B90937E006F
S113044080937D0081E080938000CD9905C08091E8
S113045077009091780030DFCC9905C080917900C5
S113046090917A0029DFFF91EF91BF91AF919F9115
S11304708F917F916F915F914F913F912F910F9049
S11304800FBE0F901F9018958F929F92AF92BF92BC
S1130490CF92DF92EF92FF92DC015C961C925C9704
S11304A05D961C925D975F961C921E925E971B96BA
S11304B02C911B971496ED91FC91159781E090E097
S11304C0AC0102C0440F551F2A95E2F79A0130810E
S11304D0232B20831A962C911A971496ED91FC9154
S11304E01597BC0102C0660F771F2A95E2F79B019E
S11304F0209530953081232320831A962C911A97C6
S11305001B964C911B971696ED91FC911797BC0185
S113051002C0660F771F2A95E2F702C0880F991F61
S11305204A95E2F7862B972B9081892B8083E2E210
S1130530F0E0C590D590E590F4904D915D916D916A
S11305407C911397C416D506E606F706A9F04EE289
S113055050E021E030E0FA0185909590A590B490A8
S1130560CD90DD90ED90FC9013978C149D04AE0417
S1130570BF0409F05EC002C020E030E0C901880F6A
S1130580991FFC01E20FF31FEE0FFF1FEE0FFF1F79
S1130590EA5DFF4F4591549193965C934E939297E5
S11305A0FC01E20FF31FEE0FFF1FEE0FFF1FE85DCC
S11305B0FF4F4591549191965C934E939097FC0113
S11305C0E20FF31FEE0FFF1FEE0FFF1FE65DFF4F5D
S11305D04591549195965C934E939497FC01E20F48
S11305E0F31FEE0FFF1FEE0FFF1FE45DFF4F85911A
S11305F0949197969C938E9396978BB780618BBFBB
S11306001A963C911A9722B381E090E002C0880FB9
S1130610991F3A95E2F7822B82BB96968D919C9115
S1130620979720E001972FEF8F3F9207D9F778949F
S113063008C02F5F3F4F445F5F4F2D30310509F0F5
S11306408ACFFF90EF90DF90CF90BF90AF909F90B4
S10B06508F900895F894FFCF88
S9030000FC
