:100000005EC078C0FCC176C075C074C073C072C0D9
:1000100071C04FC16FC06EC06DC06CC06BC06AC094
:1000200069C000C20100010005000500030000E1F5
:10003000000001000F000F000D00009600000200FC
:1000400019001A001700127A000007002000210092
:100050001D00807000000B00230023002000004BD7
:1000600000001400370037003400403800001E0044
:100070004B004B00480080250000320072007200E7
:100080007000C01200006E00E900E900E60060099F
:100090000000E500D801D801D501B0040000D3016B
:1000A000B403B403B10358020000B4036707670741
:1000B00062072C0100006707DD0EDD0EDA0E112449
:1000C0001FBECFE5D2E0DEBFCDBF10E0A0E6B0E0BE
:1000D000E8E4F6E002C005900D92A036B107D9F72A
:1000E00020E0A0E6B0E001C01D92AF37B207E1F713
:1000F00068D0A8C285CFD79ADF9883ED93E00197A7
:10010000F1F700C00000D79895EB9A95F1F7000041
:1001100089B38078809376008BE493E00197F1F7C0
:1001200000C00000089598E080E0D79A25E02A9565
:10013000F1F70000D7982AE02A95F1F700C08695DC
:10014000CF99806825EA2A95F1F70000915069F768
:10015000089598E0D79A25E02A95F1F7000080FFEE
:1001600002C0D79801C0D79A869525EA2A95F1F75B
:100170000000D79825E02A95F1F70000915051F73B
:1001800008950F931F93CF93DF93B5DF8CECE1DFDE
:100190008EEBDFDFC1E6D0E00AE610E0C4DF899332
:1001A000C017D107D9F7DF91CF911F910F91089513
:1001B00082E080BF13BE12BE99E096BF1CBE89BF0D
:1001C0000895CF93DF93CDB7DEB7C056D1400FB6B9
:1001D000F894DEBF0FBECDBFEBDFFE01E75FFE4F41
:1001E00018E5DF01212F1D922A95E9F70F2EF0E87F
:1001F000CF2EF5E2DF2EE12CF12CF02DC082D18242
:10020000E282F3826AE370E0758364834BE350E03B
:100210005783468389E390E09187808725E0228792
:1002200021E0238708E59E012F5F3F4FD901019010
:100230000D920A95E1F7FE01EF54FF4FDF011D9289
:100240001A95E9F7C082D182E282F38275836483D2
:10025000578346839187808784E08287CE01875ABF
:100260009F4F48E5DC0101900D924A95E1F73093EC
:1002700078002093770090937A0080937900FCD0E7
:100280008091770090917800F7D07BDFBFE72AE17B
:1002900086E0B15020408040E1F700C000009FE7B9
:1002A000AAE1B6E09150A040B040E1F700C00000E4
:1002B000ECCF1F920F920FB60F9211248F939F9342
:1002C00080917B0090917C00019690937C008093BC
:1002D0007B009F918F910F900FBE0F901F901895EC
:1002E000CF93DF93DC011896ED91FC9119971A9644
:1002F0002C911A97808190E002C0959587952A9558
:10030000E2F780FD79C0FD01EE5AFF4F80819181B7
:1003100020E001972FEF8F3F9207D9F788E090E018
:1003200041E050E0ED01C05BDF4F70E0E881F98112
:100330003197272F31972FEFEF3FF207D9F7189614
:10034000ED91FC9119971A966C911A97208130E0E3
:1003500002C0359527956A95E2F720FF02C0542B1D
:1003600003C0242F20955223440F0197F9F6FD0175
:10037000EC5AFF4F80819181059720E001972FEF84
:100380008F3F9207D9F71896ED91FC9119971A961D
:100390002C911A97808190E002C0959587952A95B7
:1003A000E2F780FD09C010927C0010927B0082E091
:1003B00083BF81E080937E00FD01E45BFF4F80817D
:1003C0003196208190E001968F73992730E0821753
:1003D000930759F031978081A80FB11D1C965C934B
:1003E00080818F5F8F73808307C0A25BBF4F81E0E6
:1003F00090E011969C938E93DF91CF9108951F9278
:100400000F920FB60F9211242F933F934F935F9348
:100410006F937F938F939F93AF93BF93EF93FF93CC
:1004200080917E00882349F0CC9B07C013BE12BE8A
:1004300010927E0081E080937D00CD9905C080916F
:100440007700909178004CDFCC9905C080917900BD
:1004500090917A0045DFFF91EF91BF91AF919F910D
:100460008F917F916F915F914F913F912F910F905D
:100470000FBE0F901F9018958F929F92AF92BF92D0
:10048000CF92DF92EF92FF92DC01FC01E45BFF4F21
:100490001082319610823196118210821B962C9117
:1004A0001B971496ED91FC91159781E090E0AC01BB
:1004B00002C0440F551F2A95E2F79A013081232B81
:1004C00020831A962C911A971496ED91FC9115970A
:1004D000BC0102C0660F771F2A95E2F79B012095A9
:1004E00030953081232320831A962C911A971B96DE
:1004F0004C911B971696ED91FC911797BC0102C089
:10050000660F771F2A95E2F702C0880F991F4A9558
:10051000E2F7862B972B9081892B8083E2E2F0E033
:10052000C590D590E590F4904D915D916D917C9141
:100530001397C416D506E606F706A9F04EE250E07A
:1005400021E030E0FA0185909590A590B490CD908F
:10055000DD90ED90FC9013978C149D04AE04BF04C5
:1005600009F05FC002C020E030E0C901880F991F88
:10057000FC01E20FF31FEE0FFF1FEE0FFF1FEA5DFE
:10058000FF4F45915491FD01EE5AFF4F5183408337
:10059000FC01E20FF31FEE0FFF1FEE0FFF1FE85DE0
:1005A000FF4F45915491FD01E05BFF4F5183408324
:1005B000FC01E20FF31FEE0FFF1FEE0FFF1FE65DC2
:1005C000FF4F45915491FD01EC5AFF4F51834083F9
:1005D000FC01E20FF31FEE0FFF1FEE0FFF1FE45DA4
:1005E000FF4F85919491FD01EA5AFF4F91838083DB
:1005F0008BB780618BBF1A963C9122B381E090E06B
:1006000002C0880F991F3A95E2F7822B82BB808146
:10061000918120E001972FEF8F3F9207D9F77894CF
:1006200008C02F5F3F4F445F5F4F2D30310509F009
:1006300089CFFF90EF90DF90CF90BF90AF909F90C9
:080640008F900895F894FFCF9C
:00000001FF
